{
  "contractName": "BloodDonation",
  "abi": [
    {
      "anonymous": false,
      "inputs": [
        {
          "indexed": true,
          "internalType": "address",
          "name": "donor",
          "type": "address"
        },
        {
          "indexed": true,
          "internalType": "address",
          "name": "receiver",
          "type": "address"
        },
        {
          "indexed": false,
          "internalType": "string",
          "name": "bloodType",
          "type": "string"
        },
        {
          "indexed": false,
          "internalType": "uint256",
          "name": "quantity",
          "type": "uint256"
        },
        {
          "indexed": false,
          "internalType": "uint256",
          "name": "timestamp",
          "type": "uint256"
        }
      ],
      "name": "NewDonation",
      "type": "event"
    },
    {
      "inputs": [],
      "name": "donationCount",
      "outputs": [
        {
          "internalType": "uint256",
          "name": "",
          "type": "uint256"
        }
      ],
      "stateMutability": "view",
      "type": "function",
      "constant": true
    },
    {
      "inputs": [
        {
          "internalType": "uint256",
          "name": "",
          "type": "uint256"
        }
      ],
      "name": "donations",
      "outputs": [
        {
          "internalType": "address",
          "name": "donor",
          "type": "address"
        },
        {
          "internalType": "address",
          "name": "receiver",
          "type": "address"
        },
        {
          "internalType": "string",
          "name": "bloodType",
          "type": "string"
        },
        {
          "internalType": "uint256",
          "name": "quantity",
          "type": "uint256"
        },
        {
          "internalType": "uint256",
          "name": "timestamp",
          "type": "uint256"
        }
      ],
      "stateMutability": "view",
      "type": "function",
      "constant": true
    },
    {
      "inputs": [
        {
          "internalType": "address",
          "name": "_receiver",
          "type": "address"
        },
        {
          "internalType": "string",
          "name": "_bloodType",
          "type": "string"
        },
        {
          "internalType": "uint256",
          "name": "_quantity",
          "type": "uint256"
        }
      ],
      "name": "donateBlood",
      "outputs": [],
      "stateMutability": "nonpayable",
      "type": "function"
    },
    {
      "inputs": [],
      "name": "getDonationCount",
      "outputs": [
        {
          "internalType": "uint256",
          "name": "",
          "type": "uint256"
        }
      ],
      "stateMutability": "view",
      "type": "function",
      "constant": true
    },
    {
      "inputs": [
        {
          "internalType": "uint256",
          "name": "index",
          "type": "uint256"
        }
      ],
      "name": "getDonation",
      "outputs": [
        {
          "internalType": "address",
          "name": "",
          "type": "address"
        },
        {
          "internalType": "address",
          "name": "",
          "type": "address"
        },
        {
          "internalType": "string",
          "name": "",
          "type": "string"
        },
        {
          "internalType": "uint256",
          "name": "",
          "type": "uint256"
        },
        {
          "internalType": "uint256",
          "name": "",
          "type": "uint256"
        }
      ],
      "stateMutability": "view",
      "type": "function",
      "constant": true
    }
  ],
  "bytecode": "0x608060405234801561001057600080fd5b50610bcd806100206000396000f3fe608060405234801561001057600080fd5b50600436106100575760003560e01c80632abfab4d1461005c578063e55a62a81461007a578063ec559a8914610098578063ef07a81f146100b4578063f8626af8146100e8575b600080fd5b61006461011c565b604051610071919061093a565b60405180910390f35b610082610122565b60405161008f919061093a565b60405180910390f35b6100b260048036038101906100ad919061075b565b61012c565b005b6100ce60048036038101906100c991906107c2565b6102f7565b6040516100df959493929190610882565b60405180910390f35b61010260048036038101906100fd91906107c2565b610518565b604051610113959493929190610882565b60405180910390f35b60015481565b6000600154905090565b60006040518060a001604052803373ffffffffffffffffffffffffffffffffffffffff1681526020018573ffffffffffffffffffffffffffffffffffffffff168152602001848152602001838152602001428152509050600081908060018154018082558091505060019003906000526020600020906005020160009091909190915060008201518160000160006101000a81548173ffffffffffffffffffffffffffffffffffffffff021916908373ffffffffffffffffffffffffffffffffffffffff16021790555060208201518160010160006101000a81548173ffffffffffffffffffffffffffffffffffffffff021916908373ffffffffffffffffffffffffffffffffffffffff1602179055506040820151816002019080519060200190610259929190610626565b50606082015181600301556080820151816004015550506001600081548092919061028390610a82565b91905055508373ffffffffffffffffffffffffffffffffffffffff163373ffffffffffffffffffffffffffffffffffffffff167fafdb66e1f27562b893f5026a6721164883fecb7b025cebc5ad4ab3c5a574c0888585426040516102e9939291906108dc565b60405180910390a350505050565b60008060606000806001548610610343576040517f08c379a000000000000000000000000000000000000000000000000000000000815260040161033a9061091a565b60405180910390fd5b600080878154811061037e577f4e487b7100000000000000000000000000000000000000000000000000000000600052603260045260246000fd5b90600052602060002090600502016040518060a00160405290816000820160009054906101000a900473ffffffffffffffffffffffffffffffffffffffff1673ffffffffffffffffffffffffffffffffffffffff1673ffffffffffffffffffffffffffffffffffffffff1681526020016001820160009054906101000a900473ffffffffffffffffffffffffffffffffffffffff1673ffffffffffffffffffffffffffffffffffffffff1673ffffffffffffffffffffffffffffffffffffffff16815260200160028201805461045390610a50565b80601f016020809104026020016040519081016040528092919081815260200182805461047f90610a50565b80156104cc5780601f106104a1576101008083540402835291602001916104cc565b820191906000526020600020905b8154815290600101906020018083116104af57829003601f168201915b5050505050815260200160038201548152602001600482015481525050905080600001518160200151826040015183606001518460800151955095509550955095505091939590929450565b6000818154811061052857600080fd5b90600052602060002090600502016000915090508060000160009054906101000a900473ffffffffffffffffffffffffffffffffffffffff16908060010160009054906101000a900473ffffffffffffffffffffffffffffffffffffffff169080600201805461059790610a50565b80601f01602080910402602001604051908101604052809291908181526020018280546105c390610a50565b80156106105780601f106105e557610100808354040283529160200191610610565b820191906000526020600020905b8154815290600101906020018083116105f357829003601f168201915b5050505050908060030154908060040154905085565b82805461063290610a50565b90600052602060002090601f016020900481019282610654576000855561069b565b82601f1061066d57805160ff191683800117855561069b565b8280016001018555821561069b579182015b8281111561069a57825182559160200191906001019061067f565b5b5090506106a891906106ac565b5090565b5b808211156106c55760008160009055506001016106ad565b5090565b60006106dc6106d784610986565b610955565b9050828152602081018484840111156106f457600080fd5b6106ff848285610a0e565b509392505050565b60008135905061071681610b69565b92915050565b600082601f83011261072d57600080fd5b813561073d8482602086016106c9565b91505092915050565b60008135905061075581610b80565b92915050565b60008060006060848603121561077057600080fd5b600061077e86828701610707565b935050602084013567ffffffffffffffff81111561079b57600080fd5b6107a78682870161071c565b92505060406107b886828701610746565b9150509250925092565b6000602082840312156107d457600080fd5b60006107e284828501610746565b91505092915050565b6107f4816109d2565b82525050565b6000610805826109b6565b61080f81856109c1565b935061081f818560208601610a1d565b61082881610b58565b840191505092915050565b60006108406013836109c1565b91507f496e646578206f7574206f6620626f756e6473000000000000000000000000006000830152602082019050919050565b61087c81610a04565b82525050565b600060a08201905061089760008301886107eb565b6108a460208301876107eb565b81810360408301526108b681866107fa565b90506108c56060830185610873565b6108d26080830184610873565b9695505050505050565b600060608201905081810360008301526108f681866107fa565b90506109056020830185610873565b6109126040830184610873565b949350505050565b6000602082019050818103600083015261093381610833565b9050919050565b600060208201905061094f6000830184610873565b92915050565b6000604051905081810181811067ffffffffffffffff8211171561097c5761097b610b29565b5b8060405250919050565b600067ffffffffffffffff8211156109a1576109a0610b29565b5b601f19601f8301169050602081019050919050565b600081519050919050565b600082825260208201905092915050565b60006109dd826109e4565b9050919050565b600073ffffffffffffffffffffffffffffffffffffffff82169050919050565b6000819050919050565b82818337600083830152505050565b60005b83811015610a3b578082015181840152602081019050610a20565b83811115610a4a576000848401525b50505050565b60006002820490506001821680610a6857607f821691505b60208210811415610a7c57610a7b610afa565b5b50919050565b6000610a8d82610a04565b91507fffffffffffffffffffffffffffffffffffffffffffffffffffffffffffffffff821415610ac057610abf610acb565b5b600182019050919050565b7f4e487b7100000000000000000000000000000000000000000000000000000000600052601160045260246000fd5b7f4e487b7100000000000000000000000000000000000000000000000000000000600052602260045260246000fd5b7f4e487b7100000000000000000000000000000000000000000000000000000000600052604160045260246000fd5b6000601f19601f8301169050919050565b610b72816109d2565b8114610b7d57600080fd5b50565b610b8981610a04565b8114610b9457600080fd5b5056fea2646970667358221220959619a524e0d7ed27f72f5328a5564e1aa6be4ee02acbfe49759a4786cf56fa64736f6c63430008000033",
  "immutableReferences": {},
  "source": "// SPDX-License-Identifier: MIT\npragma solidity ^0.8.0;\n\ncontract BloodDonation {\n    struct Donation {\n        address donor;\n        address receiver;\n        string bloodType;\n        uint256 quantity;\n        uint256 timestamp;\n    }\n\n    Donation[] public donations;\n    uint256 public donationCount;\n\n    event NewDonation(address indexed donor, address indexed receiver, string bloodType, uint256 quantity, uint256 timestamp);\n\n    function donateBlood(address _receiver, string memory _bloodType, uint256 _quantity) public {\n        Donation memory newDonation = Donation({\n            donor: msg.sender,\n            receiver: _receiver,\n            bloodType: _bloodType,\n            quantity: _quantity,\n            timestamp: block.timestamp\n        });\n        \n        donations.push(newDonation);\n        donationCount++;\n\n        emit NewDonation(msg.sender, _receiver, _bloodType, _quantity, block.timestamp);\n    }\n\n    function getDonationCount() public view returns (uint256) {\n        return donationCount;\n    }\n\n    function getDonation(uint256 index) public view returns (address, address, string memory, uint256, uint256) {\n        require(index < donationCount, \"Index out of bounds\");\n        Donation memory donation = donations[index];\n        return (donation.donor, donation.receiver, donation.bloodType, donation.quantity, donation.timestamp);\n    }\n}\n",
  "sourcePath": "C:\\Users\\91790\\Desktop\\Shinigami_summer_project-main\\Shinigami_summer_project-main\\contracts\\BloodDonation.sol",
  "compiler": {
    "name": "solc",
    "version": "0.8.0+commit.c7dfd78e.Emscripten.clang"
  },
  "schemaVersion": "3.4.16",
  "updatedAt": "2024-07-07T11:34:11.566Z",
  "networkType": "ethereum",
  "devdoc": {
    "kind": "dev",
    "methods": {},
    "version": 1
  },
  "userdoc": {
    "kind": "user",
    "methods": {},
    "version": 1
  }
}